{
  "_format": "hh-sol-artifact-1",
  "contractName": "CertificateRegistry",
  "sourceName": "contracts/CertificateRegistry.sol",
  "abi": [
    {
      "inputs": [],
      "stateMutability": "nonpayable",
      "type": "constructor"
    },
    {
      "inputs": [],
      "name": "AccessControlBadConfirmation",
      "type": "error"
    },
    {
      "inputs": [
        {
          "internalType": "address",
          "name": "account",
          "type": "address"
        },
        {
          "internalType": "bytes32",
          "name": "neededRole",
          "type": "bytes32"
        }
      ],
      "name": "AccessControlUnauthorizedAccount",
      "type": "error"
    },
    {
      "anonymous": false,
      "inputs": [
        {
          "indexed": true,
          "internalType": "address",
          "name": "student",
          "type": "address"
        },
        {
          "indexed": false,
          "internalType": "string",
          "name": "ipfsCID",
          "type": "string"
        },
        {
          "indexed": false,
          "internalType": "string",
          "name": "studentName",
          "type": "string"
        },
        {
          "indexed": false,
          "internalType": "string",
          "name": "degree",
          "type": "string"
        },
        {
          "indexed": true,
          "internalType": "address",
          "name": "issuer",
          "type": "address"
        }
      ],
      "name": "CertificateIssued",
      "type": "event"
    },
    {
      "anonymous": false,
      "inputs": [
        {
          "indexed": true,
          "internalType": "bytes32",
          "name": "role",
          "type": "bytes32"
        },
        {
          "indexed": true,
          "internalType": "bytes32",
          "name": "previousAdminRole",
          "type": "bytes32"
        },
        {
          "indexed": true,
          "internalType": "bytes32",
          "name": "newAdminRole",
          "type": "bytes32"
        }
      ],
      "name": "RoleAdminChanged",
      "type": "event"
    },
    {
      "anonymous": false,
      "inputs": [
        {
          "indexed": true,
          "internalType": "bytes32",
          "name": "role",
          "type": "bytes32"
        },
        {
          "indexed": true,
          "internalType": "address",
          "name": "account",
          "type": "address"
        },
        {
          "indexed": true,
          "internalType": "address",
          "name": "sender",
          "type": "address"
        }
      ],
      "name": "RoleGranted",
      "type": "event"
    },
    {
      "anonymous": false,
      "inputs": [
        {
          "indexed": true,
          "internalType": "bytes32",
          "name": "role",
          "type": "bytes32"
        },
        {
          "indexed": true,
          "internalType": "address",
          "name": "account",
          "type": "address"
        },
        {
          "indexed": true,
          "internalType": "address",
          "name": "sender",
          "type": "address"
        }
      ],
      "name": "RoleRevoked",
      "type": "event"
    },
    {
      "inputs": [],
      "name": "DEFAULT_ADMIN_ROLE",
      "outputs": [
        {
          "internalType": "bytes32",
          "name": "",
          "type": "bytes32"
        }
      ],
      "stateMutability": "view",
      "type": "function"
    },
    {
      "inputs": [],
      "name": "ISSUER_ROLE",
      "outputs": [
        {
          "internalType": "bytes32",
          "name": "",
          "type": "bytes32"
        }
      ],
      "stateMutability": "view",
      "type": "function"
    },
    {
      "inputs": [
        {
          "internalType": "string",
          "name": "_ipfsCID",
          "type": "string"
        }
      ],
      "name": "checkValidity",
      "outputs": [
        {
          "internalType": "bool",
          "name": "exists",
          "type": "bool"
        },
        {
          "internalType": "address",
          "name": "student",
          "type": "address"
        }
      ],
      "stateMutability": "view",
      "type": "function"
    },
    {
      "inputs": [
        {
          "internalType": "address",
          "name": "_student",
          "type": "address"
        }
      ],
      "name": "getCertificates",
      "outputs": [
        {
          "components": [
            {
              "internalType": "string",
              "name": "ipfsCID",
              "type": "string"
            },
            {
              "internalType": "string",
              "name": "studentName",
              "type": "string"
            },
            {
              "internalType": "string",
              "name": "degree",
              "type": "string"
            },
            {
              "internalType": "string",
              "name": "issueDate",
              "type": "string"
            },
            {
              "internalType": "string",
              "name": "issuerName",
              "type": "string"
            },
            {
              "internalType": "uint256",
              "name": "timestamp",
              "type": "uint256"
            },
            {
              "internalType": "bool",
              "name": "exists",
              "type": "bool"
            }
          ],
          "internalType": "struct CertificateRegistry.Certificate[]",
          "name": "",
          "type": "tuple[]"
        }
      ],
      "stateMutability": "view",
      "type": "function"
    },
    {
      "inputs": [
        {
          "internalType": "bytes32",
          "name": "role",
          "type": "bytes32"
        }
      ],
      "name": "getRoleAdmin",
      "outputs": [
        {
          "internalType": "bytes32",
          "name": "",
          "type": "bytes32"
        }
      ],
      "stateMutability": "view",
      "type": "function"
    },
    {
      "inputs": [
        {
          "internalType": "bytes32",
          "name": "role",
          "type": "bytes32"
        },
        {
          "internalType": "address",
          "name": "account",
          "type": "address"
        }
      ],
      "name": "grantRole",
      "outputs": [],
      "stateMutability": "nonpayable",
      "type": "function"
    },
    {
      "inputs": [
        {
          "internalType": "bytes32",
          "name": "role",
          "type": "bytes32"
        },
        {
          "internalType": "address",
          "name": "account",
          "type": "address"
        }
      ],
      "name": "hasRole",
      "outputs": [
        {
          "internalType": "bool",
          "name": "",
          "type": "bool"
        }
      ],
      "stateMutability": "view",
      "type": "function"
    },
    {
      "inputs": [
        {
          "internalType": "address",
          "name": "_student",
          "type": "address"
        },
        {
          "internalType": "string",
          "name": "_ipfsCID",
          "type": "string"
        },
        {
          "internalType": "string",
          "name": "_studentName",
          "type": "string"
        },
        {
          "internalType": "string",
          "name": "_degree",
          "type": "string"
        },
        {
          "internalType": "string",
          "name": "_issueDate",
          "type": "string"
        },
        {
          "internalType": "string",
          "name": "_issuerName",
          "type": "string"
        }
      ],
      "name": "issueCertificate",
      "outputs": [],
      "stateMutability": "nonpayable",
      "type": "function"
    },
    {
      "inputs": [
        {
          "internalType": "bytes32",
          "name": "role",
          "type": "bytes32"
        },
        {
          "internalType": "address",
          "name": "callerConfirmation",
          "type": "address"
        }
      ],
      "name": "renounceRole",
      "outputs": [],
      "stateMutability": "nonpayable",
      "type": "function"
    },
    {
      "inputs": [
        {
          "internalType": "bytes32",
          "name": "role",
          "type": "bytes32"
        },
        {
          "internalType": "address",
          "name": "account",
          "type": "address"
        }
      ],
      "name": "revokeRole",
      "outputs": [],
      "stateMutability": "nonpayable",
      "type": "function"
    },
    {
      "inputs": [
        {
          "internalType": "bytes4",
          "name": "interfaceId",
          "type": "bytes4"
        }
      ],
      "name": "supportsInterface",
      "outputs": [
        {
          "internalType": "bool",
          "name": "",
          "type": "bool"
        }
      ],
      "stateMutability": "view",
      "type": "function"
    },
    {
      "inputs": [
        {
          "internalType": "string",
          "name": "_ipfsCID",
          "type": "string"
        }
      ],
      "name": "verifyCertificate",
      "outputs": [
        {
          "components": [
            {
              "internalType": "string",
              "name": "ipfsCID",
              "type": "string"
            },
            {
              "internalType": "string",
              "name": "studentName",
              "type": "string"
            },
            {
              "internalType": "string",
              "name": "degree",
              "type": "string"
            },
            {
              "internalType": "string",
              "name": "issueDate",
              "type": "string"
            },
            {
              "internalType": "string",
              "name": "issuerName",
              "type": "string"
            },
            {
              "internalType": "uint256",
              "name": "timestamp",
              "type": "uint256"
            },
            {
              "internalType": "bool",
              "name": "exists",
              "type": "bool"
            }
          ],
          "internalType": "struct CertificateRegistry.Certificate",
          "name": "",
          "type": "tuple"
        }
      ],
      "stateMutability": "view",
      "type": "function"
    }
  ],
  "bytecode": "0x608060405234801561001057600080fd5b5061001c60003361004d565b506100477f114e74f6ea3bd819998f78687bfcb11b140da08e9b7d222fa9c1f1ba1f2aa1223361004d565b506100f9565b6000828152602081815260408083206001600160a01b038516845290915281205460ff166100ef576000838152602081815260408083206001600160a01b03861684529091529020805460ff191660011790556100a73390565b6001600160a01b0316826001600160a01b0316847f2f8788117e7eff1d82e926ec794901d17c78024a50270940304540a733656f0d60405160405180910390a45060016100f3565b5060005b92915050565b611549806101086000396000f3fe608060405234801561001057600080fd5b50600436106100b45760003560e01c806391d148541161007157806391d1485414610181578063a217fddf14610194578063d547741f1461019c578063de8c98fd146101af578063f1c49c62146101c2578063f4d59b3a146101e257600080fd5b806301ffc9a7146100b9578063248a9ca3146100e15780632f2ff15d1461011257806336568abe1461012757806382aefa241461013a5780638b23d87514610161575b600080fd5b6100cc6100c7366004610f55565b610214565b60405190151581526020015b60405180910390f35b6101046100ef366004610f86565b60009081526020819052604090206001015490565b6040519081526020016100d8565b610125610120366004610fbb565b61024b565b005b610125610135366004610fbb565b610276565b6101047f114e74f6ea3bd819998f78687bfcb11b140da08e9b7d222fa9c1f1ba1f2aa12281565b61017461016f366004610fe7565b6102ae565b6040516100d89190611148565b6100cc61018f366004610fbb565b61069b565b610104600081565b6101256101aa366004610fbb565b6106c4565b6101256101bd3660046111fe565b6106e9565b6101d56101d03660046112df565b610a3f565b6040516100d891906112fa565b6101f56101f0366004610fe7565b610dad565b6040805192151583526001600160a01b039091166020830152016100d8565b60006001600160e01b03198216637965db0b60e01b148061024557506301ffc9a760e01b6001600160e01b03198316145b92915050565b60008281526020819052604090206001015461026681610e0e565b6102708383610e1b565b50505050565b6001600160a01b038116331461029f5760405163334bd91960e11b815260040160405180910390fd5b6102a98282610ead565b505050565b6102f06040518060e001604052806060815260200160608152602001606081526020016060815260200160608152602001600081526020016000151581525090565b6002838360405161030292919061135c565b9081526040519081900360200190206006015460ff166103755760405162461bcd60e51b815260206004820152602360248201527f4365727469666963617465206e6f7420666f756e64206f6e20626c6f636b636860448201526230b4b760e91b60648201526084015b60405180910390fd5b6002838360405161038792919061135c565b90815260200160405180910390206040518060e00160405290816000820180546103b09061136c565b80601f01602080910402602001604051908101604052809291908181526020018280546103dc9061136c565b80156104295780601f106103fe57610100808354040283529160200191610429565b820191906000526020600020905b81548152906001019060200180831161040c57829003601f168201915b505050505081526020016001820180546104429061136c565b80601f016020809104026020016040519081016040528092919081815260200182805461046e9061136c565b80156104bb5780601f10610490576101008083540402835291602001916104bb565b820191906000526020600020905b81548152906001019060200180831161049e57829003601f168201915b505050505081526020016002820180546104d49061136c565b80601f01602080910402602001604051908101604052809291908181526020018280546105009061136c565b801561054d5780601f106105225761010080835404028352916020019161054d565b820191906000526020600020905b81548152906001019060200180831161053057829003601f168201915b505050505081526020016003820180546105669061136c565b80601f01602080910402602001604051908101604052809291908181526020018280546105929061136c565b80156105df5780601f106105b4576101008083540402835291602001916105df565b820191906000526020600020905b8154815290600101906020018083116105c257829003601f168201915b505050505081526020016004820180546105f89061136c565b80601f01602080910402602001604051908101604052809291908181526020018280546106249061136c565b80156106715780601f1061064657610100808354040283529160200191610671565b820191906000526020600020905b81548152906001019060200180831161065457829003601f168201915b50505091835250506005820154602082015260069091015460ff1615156040909101529392505050565b6000918252602082815260408084206001600160a01b0393909316845291905290205460ff1690565b6000828152602081905260409020600101546106df81610e0e565b6102708383610ead565b7f114e74f6ea3bd819998f78687bfcb11b140da08e9b7d222fa9c1f1ba1f2aa12261071381610e0e565b6001600160a01b0387166107695760405162461bcd60e51b815260206004820152601760248201527f496e76616c69642073747564656e742061646472657373000000000000000000604482015260640161036c565b60008651116107a65760405162461bcd60e51b8152602060048201526009602482015268115b5c1d1e4810d25160ba1b604482015260640161036c565b6002866040516107b691906113a6565b9081526040519081900360200190206006015460ff16156108245760405162461bcd60e51b815260206004820152602260248201527f43657274696669636174652043494420616c7265616479207265676973746572604482015261195960f21b606482015260840161036c565b6040805160e081018252878152602080820188905281830187905260608201869052608082018590524260a0830152600160c083018190526001600160a01b038b166000908152818352938420805491820181558452922081519192839260079091029091019081906108979082611410565b50602082015160018201906108ac9082611410565b50604082015160028201906108c19082611410565b50606082015160038201906108d69082611410565b50608082015160048201906108eb9082611410565b5060a0820151600582015560c0909101516006909101805460ff19169115159190911790556040518190600290610923908a906113a6565b908152604051908190036020019020815181906109409082611410565b50602082015160018201906109559082611410565b506040820151600282019061096a9082611410565b506060820151600382019061097f9082611410565b50608082015160048201906109949082611410565b5060a0820151600582015560c0909101516006909101805460ff191691151591909117905560405188906003906109cc908a906113a6565b90815260405190819003602001812080546001600160a01b039384166001600160a01b031990911617905533918a16907fcd5daf69d86c7e37886114f11ad1ec503f1b6bde2b808db8319b2d2c6735cc8d90610a2d908b908b908b906114d0565b60405180910390a35050505050505050565b6001600160a01b0381166000908152600160209081526040808320805482518185028101850190935280835260609492939192909184015b82821015610da257838290600052602060002090600702016040518060e0016040529081600082018054610aaa9061136c565b80601f0160208091040260200160405190810160405280929190818152602001828054610ad69061136c565b8015610b235780601f10610af857610100808354040283529160200191610b23565b820191906000526020600020905b815481529060010190602001808311610b0657829003601f168201915b50505050508152602001600182018054610b3c9061136c565b80601f0160208091040260200160405190810160405280929190818152602001828054610b689061136c565b8015610bb55780601f10610b8a57610100808354040283529160200191610bb5565b820191906000526020600020905b815481529060010190602001808311610b9857829003601f168201915b50505050508152602001600282018054610bce9061136c565b80601f0160208091040260200160405190810160405280929190818152602001828054610bfa9061136c565b8015610c475780601f10610c1c57610100808354040283529160200191610c47565b820191906000526020600020905b815481529060010190602001808311610c2a57829003601f168201915b50505050508152602001600382018054610c609061136c565b80601f0160208091040260200160405190810160405280929190818152602001828054610c8c9061136c565b8015610cd95780601f10610cae57610100808354040283529160200191610cd9565b820191906000526020600020905b815481529060010190602001808311610cbc57829003601f168201915b50505050508152602001600482018054610cf29061136c565b80601f0160208091040260200160405190810160405280929190818152602001828054610d1e9061136c565b8015610d6b5780601f10610d4057610100808354040283529160200191610d6b565b820191906000526020600020905b815481529060010190602001808311610d4e57829003601f168201915b5050509183525050600582015460208083019190915260069092015460ff1615156040909101529082526001929092019101610a77565b505050509050919050565b60008060028484604051610dc292919061135c565b9081526040519081900360200181206006015460ff1690600390610de9908790879061135c565b908152604051908190036020019020549092506001600160a01b031690509250929050565b610e188133610f18565b50565b6000610e27838361069b565b610ea5576000838152602081815260408083206001600160a01b03861684529091529020805460ff19166001179055610e5d3390565b6001600160a01b0316826001600160a01b0316847f2f8788117e7eff1d82e926ec794901d17c78024a50270940304540a733656f0d60405160405180910390a4506001610245565b506000610245565b6000610eb9838361069b565b15610ea5576000838152602081815260408083206001600160a01b0386168085529252808320805460ff1916905551339286917ff6391f5c32d9c69d2a47ea670b442974b53935d1edc7fd64eb21e047a839171b9190a4506001610245565b610f22828261069b565b610f515760405163e2517d3f60e01b81526001600160a01b03821660048201526024810183905260440161036c565b5050565b600060208284031215610f6757600080fd5b81356001600160e01b031981168114610f7f57600080fd5b9392505050565b600060208284031215610f9857600080fd5b5035919050565b80356001600160a01b0381168114610fb657600080fd5b919050565b60008060408385031215610fce57600080fd5b82359150610fde60208401610f9f565b90509250929050565b60008060208385031215610ffa57600080fd5b823567ffffffffffffffff8082111561101257600080fd5b818501915085601f83011261102657600080fd5b81358181111561103557600080fd5b86602082850101111561104757600080fd5b60209290920196919550909350505050565b60005b8381101561107457818101518382015260200161105c565b50506000910152565b60008151808452611095816020860160208601611059565b601f01601f19169290920160200192915050565b6000815160e084526110be60e085018261107d565b9050602083015184820360208601526110d7828261107d565b915050604083015184820360408601526110f1828261107d565b9150506060830151848203606086015261110b828261107d565b91505060808301518482036080860152611125828261107d565b91505060a083015160a085015260c0830151151560c08501528091505092915050565b602081526000610f7f60208301846110a9565b634e487b7160e01b600052604160045260246000fd5b600082601f83011261118257600080fd5b813567ffffffffffffffff8082111561119d5761119d61115b565b604051601f8301601f19908116603f011681019082821181831017156111c5576111c561115b565b816040528381528660208588010111156111de57600080fd5b836020870160208301376000602085830101528094505050505092915050565b60008060008060008060c0878903121561121757600080fd5b61122087610f9f565b9550602087013567ffffffffffffffff8082111561123d57600080fd5b6112498a838b01611171565b9650604089013591508082111561125f57600080fd5b61126b8a838b01611171565b9550606089013591508082111561128157600080fd5b61128d8a838b01611171565b945060808901359150808211156112a357600080fd5b6112af8a838b01611171565b935060a08901359150808211156112c557600080fd5b506112d289828a01611171565b9150509295509295509295565b6000602082840312156112f157600080fd5b610f7f82610f9f565b6000602080830181845280855180835260408601915060408160051b870101925083870160005b8281101561134f57603f1988860301845261133d8583516110a9565b94509285019290850190600101611321565b5092979650505050505050565b8183823760009101908152919050565b600181811c9082168061138057607f821691505b6020821081036113a057634e487b7160e01b600052602260045260246000fd5b50919050565b600082516113b8818460208701611059565b9190910192915050565b601f8211156102a957600081815260208120601f850160051c810160208610156113e95750805b601f850160051c820191505b81811015611408578281556001016113f5565b505050505050565b815167ffffffffffffffff81111561142a5761142a61115b565b61143e81611438845461136c565b846113c2565b602080601f831160018114611473576000841561145b5750858301515b600019600386901b1c1916600185901b178555611408565b600085815260208120601f198616915b828110156114a257888601518255948401946001909101908401611483565b50858210156114c05787850151600019600388901b60f8161c191681555b5050505050600190811b01905550565b6060815260006114e3606083018661107d565b82810360208401526114f5818661107d565b90508281036040840152611509818561107d565b969550505050505056fea2646970667358221220cc5d7cd239de3036108a9a23d01423d9317678a5887f3dda551d9ec0fd0de4f964736f6c63430008140033",
  "linkReferences": {},
  "deployedLinkReferences": {}
}